:02000000F92BDA
:1002B40083128F0166290F080C078E000E08840034
:1002C4008313800101308F070D080F02031C6B2973
:1002D4006C295D29080083121F088C0020088D00FA
:1002E4005A218312A3018629932283121908033900
:1002F400013EA20023081F07A10021088400220850
:10030400831380000130A30720082302031C8B29D8
:100314008C297629080083128C00A4290030C12975
:100324006030C129DA30C129F230C1296630C129CF
:10033400B630C129BE30C129E030C129FE30C129FF
:10034400E630C1290C08013A03199229033A03192A
:100354009429013A03199629073A03199829013A6D
:1003640003199A29033A03199C29013A03199E296E
:100374000F3A0319A029013A0319A2299029080068
:1003840083128D008E0101308C000E0ACB290310DC
:100394008C0DFF3E031DC9290C080D05031DD3292F
:1003A400D62983120515D829831205118514C7305F
:1003B4008C00DC298C0BDB29DF29E02983128510D2
:1003C400C7308C00E5298C0BE429E829E9290130A0
:1003D40083128E0708300E02031CF129F229C52965
:1003E4008515C7308C00F6298C0BF529F929FA29D3
:1003F40083128511C7308C00FF298C0BFE29022A39
:10040400032A08000030831298000030970000305F
:100414009600003095000C1C102A112A282A100876
:100424009507110803110318013E03191A2A9607A8
:10043400120803110318013E0319212A9707130810
:1004440003110318013E0319282A98070130940068
:100454000310900D910D920D930D940B2A2A0130E7
:1004640003108F0C8E0C8D0C8C0CFF3E031D322A56
:100474000F080E040D040C04031D412A422A0D2A00
:1004840018088F0017088E0016088D0015088C00B8
:100494000800831291018C2A06146A2A86146A2A97
:1004A40006156A2A86156A2A11080C078E000E089A
:1004B400840083130008013A03194E2A033A0319EE
:1004C400502A013A0319522A073A0319542A6A2A6C
:1004D4000D309000AF308F00B6308E008E0B702A36
:1004E4008F0B702A900B702A00008312061086105E
:1004F400061186110D309000AF308F00B6308E009B
:100504008E0B822A8F0B822A900B822A00000130E4
:10051400831291070D081102031C912A922A562A6C
:100524000800013083129B0000309C0000309D00C5
:1005340000309E002F088F002E088E002D088D009D
:100544002C088C004C309300953092007F30910041
:100554002D309000042283120C089B070D08031809
:100564000D0FB52AB62A9C070E0803180E0FBB2AD6
:10057400BC2A9D070F0803180F0A9E071E08AF0028
:100584001D08AE001C08AD001B08AC002C089B0025
:100594002D089C002E089D002F089E00113003108A
:1005A4009E0C9D0C9C0C9B0CFF3E031DD12A1C0829
:1005B4009A001B0899000800F03083168600850114
:1005C400831286010130AB0083122B088D21C221D6
:1005D4000D308312A600AF30A500B630A400A40BE2
:1005E400F12AA50BF12AA60BF12A00002730831269
:1005F4009F002B08A0006D21273083128C002B084C
:100604008D004B22273083128C002B088D005F2332
:100614008312051C0E2B0F2B532B0130AB0005103E
:100624001C30C2210D308312A600AF30A500B630B5
:10063400A400A40B1B2BA50B1B2BA60B1B2B000030
:100644000030C2210D308312A600AF30A500B630B1
:10065400A400A40B2B2BA50B2B2BA60B2B2B0000E0
:100664001C30C2210D308312A600AF30A500B63075
:10067400A400A40B3B2BA50B3B2BA60B3B2B000090
:100684000030C2210D308312A600AF30A500B63071
:10069400A400A40B4B2BA50B4B2BA60B4B2B000040
:1006A400E62A0130AB070A302B02031C5A2B5B2BC2
:1006B400442B0130AB00442B002883129101F22B10
:1006C400861F652B662B6E2B061401309107861B43
:1006D4006C2B6D2B692BE02B061B712B722B7A2B49
:1006E400861A752B762B7A2B061E792B7A2BE02B08
:1006F40005140D089100E02B061F812B822B8A2BF9
:10070400861401309107061B882B892B852BE02B3F
:10071400861B8D2B8E2B962B861A912B922B962B28
:10072400061E952B962BE02B05147B2B861E9B2BEC
:100734009C2BA42B061501309107861AA22BA32B00
:100744009F2BE02B061BA72BA82BB02B861BAB2BB8
:10075400AC2BB02B061EAF2BB02BE02B05147B2B40
:10076400061EB52BB62BBE2B861501309107061A33
:10077400BC2BBD2BB92BE02B061BC12BC22BCA2BC8
:10078400861AC52BC62BCA2B861FC92BCA2BE02B56
:1007940005147B2B11080C078E000E0884008313AC
:1007A4000008013A0319622B033A03197E2B013A1C
:1007B4000319982B073A0319B22BE02B063090004B
:1007C40013308F00AD308E008E0BE62B8F0BE62B93
:1007D400900BE62BED2B8312061086100611861162
:1007E4000D081102031CF72BF82BCC2B08008312E5
:0C07F400AC01AD01AE01AF018301DE2AB3
:00000001FF
